:020000040800F2
:10000000000002205909000855090008054D0008A4
:1000100055090008550900085509000800000000AE
:10002000000000000000000000000000550900086A
:10003000550900080000000055090008894C000817
:100040005509000855090008550900085509000818
:100050005509000855090008550900085509000808
:10006000550900085509000855090008914800087D
:100070009D480008F5350008A9480008B548000863
:1000800035EE0008C13D0008550900085509000873
:1000900055090008550900085509000855090008C8
:1000A00055090008550900085509000855090008B8
:1000B0004DE2000859E2000865E20008F53D00083D
:1000C00055090008013E000855090008BDDA00087E
:1000D000C9DA000869EC000895EC0008C9EC0008D2
:1000E00055090008550900080000000055090008DE
:1000F0005509000855090008550900085509000868
:10010000550900085509000871E20008D5DA000811
:10011000FDEC000831ED00085509000855090008FC
:100120005509000855090008F9DA00082DDB000818
:1001300069EE00085509000855090008550900082E
:1001400000000000000000000000000000000000AF
:1001500055090008550900085509000865ED000813
:100160000D3E000855090008994C0008BD4C0008D8
:1001700055090008E14C0008550900085509000818
:10018000550900085509000899ED0008CDED000853
:10019000E1DA0008EDDA0008550900085509000801
:1001A00055090008550900085509000855090008B7
:1001B000B14500085509000855090008550900080F
:1001C00055090008550900081530000821300008BD
:1001D000550900082D300008550900085509000888
:1001E0005509000855090008550900085509000877
:1001F0005509000855090008550900085509000867
:100200005509000855090008550900085509000856
:100210005509000855090008550900085509000846
:10022000550900085509000855090008000000009C
:10023000550900085509000800000000550900088C
:100240005509000855090008550900085509000816
:100250005509000855090008550900085509000806
:1002600055090008550900085509000855090008F6
:10027000550900085509000801EE000800000000BB
:10028000550900085509000855090008000000003C
:08029000000000005509000800
:1002980010B5054C237833B9044B13B10448AFF3B8
:1002A80000800123237010BD2804002400000000F2
:1002B800002D010808B5034B1BB103490348AFF3F0
:1002C800008008BD000000002C040024002D010857
:1002D80081F0004102E000BF83F0004330B54FEAEF
:1002E80041044FEA430594EA050F08BF90EA020F5C
:1002F8001FBF54EA000C55EA020C7FEA645C7FEAEF
:10030800655C00F0E2804FEA5454D4EB5555B8BF11
:100318006D420CDD2C4480EA020281EA030382EA82
:10032800000083EA010180EA020281EA0303362D14
:1003380088BF30BD11F0004F4FEA01314FF4801CE7
:100348004CEA113102D0404261EB410113F0004FF9
:100358004FEA03334CEA133302D0524263EB4303B0
:1003680094EA050F00F0A780A4F10104D5F1200E4E
:100378000DDB02FA0EFC22FA05F2801841F10001A9
:1003880003FA0EF2801843FA05F359410EE0A5F17D
:1003980020050EF1200E012A03FA0EFC28BF4CF0AE
:1003A800020C43FA05F3C01851EBE37101F0004564
:1003B80007D54FF0000EDCF1000C7EEB00006EEB71
:1003C8000101B1F5801F1BD3B1F5001F0CD34908FB
:1003D8005FEA30004FEA3C0C04F101044FEA445252
:1003E80012F5800F80F09A80BCF1004F08BF5FEAD9
:1003F800500C50F1000041EB045141EA050130BDB9
:100408005FEA4C0C404141EB0101013C28BFB1F5CA
:10041800801FE9D291F0000F04BF01460020B1FA15
:1004280081F308BF2033A3F10B03B3F120020CDAE8
:100438000C3208DD02F1140CC2F10C0201FA0CF0C6
:1004480021FA02F10CE002F11402D8BFC2F1200C2B
:1004580001FA02F120FA0CFCDCBF41EA0C019040E1
:10046800E41AA2BF01EB0451294330BD6FEA04042A
:100478001F3C1CDA0C340EDC04F11404C4F1200215
:1004880020FA04F001FA02F340EA030021FA04F327
:1004980045EA030130BDC4F10C04C4F1200220FA7E
:1004A80002F001FA04F340EA0300294630BD21FABC
:1004B80004F0294630BD94F0000F83F4801306BF82
:1004C80081F480110134013D4EE77FEA645C18BF76
:1004D8007FEA655C29D094EA050F08BF90EA020F0D
:1004E80005D054EA000C04BF1946104630BD91EA05
:1004F800030F1EBF0021002030BD5FEA545C05D108
:100508004000494128BF41F0004130BD14F5800446
:100518003CBF01F5801130BD01F0004545F0FE41BA
:1005280041F470014FF0000030BD7FEA645C1ABFEF
:10053800194610467FEA655C1CBF0B46024650EA26
:10054800013406BF52EA033591EA030F41F4002152
:1005580030BD00BF90F0000F04BF0021704730B5D8
:100568004FF4806404F132044FF000054FF00001AD
:1005780050E700BF90F0000F04BF0021704730B56E
:100588004FF4806404F1320410F0004548BF404243
:100598004FF000013EE700BF42004FEAE2014FEA98
:1005A80031014FEA02701FBF12F07F4393F07F4F73
:1005B80081F06051704732F07F4208BF704793F076
:1005C8007F4F04BF41F40021704730B54FF4607489
:1005D80001F0004521F000411CE700BF50EA01028C
:1005E80008BF704730B54FF000050AE050EA010235
:1005F80008BF704730B511F0004502D5404261EBA5
:1006080041014FF4806404F132045FEA915C3FF4E5
:10061800D8AE4FF003025FEADC0C18BF03325FEA82
:10062800DC0C18BF033202EBDC02C2F1200300FA33
:1006380003FC20FA02F001FA03FE40EA0E0021FA58
:1006480002F11444BDE600BF53B94AB9002908BFF6
:1006580000281CBF4FF0FF314FF0FF3000F074B995
:10066800ADF1080C6DE904CE00F006F8DDF804E001
:10067800DDE9022304B070472DE9F047089D0446E0
:100688008E46002B4DD18A42944669D9B2FA82F23D
:1006980052B101FA02F3C2F1200120FA01F10CFA79
:1006A80002FC41EA030E94404FEA1C48210CBEFBB1
:1006B800F8F61FFA8CF708FB16E341EA034306FB3A
:1006C80007F199420AD91CEB030306F1FF3080F0C9
:1006D8001F81994240F21C81023E63445B1AA4B216
:1006E800B3FBF8F008FB103344EA034400FB07F7B8
:1006F800A7420AD91CEB040400F1FF3380F00A81F9
:10070800A74240F207816444023840EA0640E41BED
:1007180000261DB1D4400023C5E900433146BDE899
:10072800F0878B4209D9002D00F0EF800026C5E93B
:10073800000130463146BDE8F087B3FA83F6002E53
:100748004AD18B4202D3824200F2F980841A61EBCB
:10075800030301209E46002DE0D0C5E9004EDDE7E9
:1007680002B9FFDEB2FA82F2002A40F09280A1EBD1
:100778000C014FEA1C471FFA8CFE0126200CB1FB26
:10078800F7F307FB131140EA01410EFB03F088421F
:1007980008D91CEB010103F1FF3802D2884200F2AC
:1007A800CB804346091AA4B2B1FBF7F007FB10113E
:1007B80044EA01440EFB00FEA64508D91CEB0404DC
:1007C80000F1FF3102D2A64500F2BB800846A4EB37
:1007D8000E0440EA03409CE7C6F12007B34022FA22
:1007E80007FC4CEA030C20FA07F401FA06F31C4351
:1007F800F9404FEA1C4900FA06F3B1FBF9F8200C5E
:100808001FFA8CFE09FB181140EA014108FB0EF0A3
:10081800884202FA06F20BD91CEB010108F1FF3AF3
:1008280080F08880884240F28580A8F102086144FF
:10083800091AA4B2B1FBF9F009FB101144EA01410D
:1008480000FB0EFE8E4508D91CEB010100F1FF34B8
:100858006CD28E456AD90238614440EA0840A0FB50
:100868000294A1EB0E01A142C846A64656D353D026
:100878005DB1B3EB080261EB0E0101FA07F722FA4A
:1008880006F3F1401F43C5E9007100263146BDE873
:10089800F087C2F12003D8400CFA02FC21FA03F3D6
:1008A800914001434FEA1C471FFA8CFEB3FBF7F057
:1008B80007FB10360B0C43EA064300FB0EF69E427C
:1008C80004FA02F408D91CEB030300F1FF382FD215
:1008D8009E422DD9023863449B1B89B2B3FBF7F6BD
:1008E80007FB163341EA034106FB0EF38B4208D996
:1008F8001CEB010106F1FF3816D28B4214D9023ED7
:100908006144C91A46EA004638E72E46284605E7F4
:100918000646E3E61846F8E64B45A9D2B9EB0208C5
:1009280064EB0C0E0138A3E74646EAE7204694E755
:100938004046D1E7D0467BE7023B614432E7304688
:1009480009E76444023842E7704700BFFEE700BF8A
:100958000B480C4A904203D0121A0B4911F0C2FE00
:100968000A480B4A904203D0121A002111F0C8FE1F
:1009780004F01CFC11F082FE00F0E4FEFEE700BF6C
:100988000000002424040024342D01082804002435
:10099800B43A0024704700BF704700BF704700BFDB
:1009A800704700BF704700BF704700BF00000000DD
:1009B8002DE9F04F2DED088B8FB004900191059231
:1009C800002A00F0EE810023E34E0293D6ED0C6A74
:1009D800B7EE008B96ED0B7A4FF0000A9FEDDF9A89
:1009E80037EE667A96ED060ADFEDDD0AC7EE097A7C
:1009F80077EEA67AC6ED0C7A37EE800A11F0FEFB88
:100A0800B7EEC07AF36986ED060A336237EE480B13
:100A18009FEDCB1B11F0C4FBD6ED276A96ED267A25
:100A2800B7EEC00B96ED216A37EE667ADFEDCC0A99
:100A380086ED070AC7EE097A77EEA67A37EE860AB8
:100A4800C6ED277A11F0DAFBB7EEC07AD6F888300F
:100A580086ED210AC6F88C3037EE480B9FEDB81B9F
:100A680011F09EFBD6ED426A96ED417AB7EEC00BC7
:100A780096ED3C6A37EE667ADFEDB90A86ED220A12
:100A8800C7EE097A77EEA67A37EE860AC6ED427A7D
:100A980011F0B4FBB7EEC07AD6F8F43086ED3C0A14
:100AA800C6F8F83037EE480B9FEDA51B11F078FB20
:100AB800D6ED5D6A96ED5C7AB7EEC00B96ED576A97
:100AC80037EE667ADFEDA60A86ED3D0AC7EE097AAB
:100AD80077EEA67A37EE860AC6ED5D7A11F08EFBC0
:100AE800B7EEC07AD6F8603186ED570AC6F8643199
:100AF80037EE480B9FED921B11F052FBB7EEC00B7F
:100B08000023082086ED580A0C930D9311F045F93F
:100B1800049B8046029D19685A680CAB01EB85045A
:100B28008D4E02EB850203CBC8F800000820C8F8F8
:100B38000410236834460C931368AA0055460D9395
:100B4800009211F02AF90CAB8146039603CBC9F841
:100B58000000C9F8041000230820D4ED108A0C9373
:100B68000D9394ED0F8A11F018F9D4ED067AAC467E
:100B78000CAA0546BDEEE77A7A4F94ED0C6AD64684
:100B8800AA46794B17EE106AB5EEC06AF8EEC76A46
:100B980037443344F1EE10FA4FEAE77B77EEE66A22
:100BA80003CA724A4AF8080B6960114682FB0702B9
:100BB80081FB03014FEAE370CBEB6242DFF8BCB183
:100BC8000BFB127203DDC0EB61420BFB1232616852
:100BD8006046DFF8ACB16C3401EB860301EB8202AE
:100BE8005F469B4493ED007A1744D2ED005ADBED43
:100BF800007AAEEB0C0197ED006A75EEC75A36EE37
:100C0800676AA6EEA57AE6EE867A85ED007AC5EDE6
:100C1800017ABCF1000F05D011F0BDF895ED007A0E
:100C2800D5ED017AF7EE006A98ED006A68EEA77ACA
:100C3800D8ED015A4E4B76EEE86AE7EE885AA342A1
:100C4800F0EE467A26EE877AE7EE087AC8ED015A82
:100C5800C8ED007A7FF47FAF99ED006AB5EE004BDE
:100C6800B7EEE77A019AB7EEC66A0099B6EE085B66
:100C78001368404826EE046B0B44039EA7EE056BF1
:100C8800B7EEC66B83ED006A99ED017A98ED016ABB
:100C9800B7EEC77A5368B7EEC66A0B4427EE047BF3
:100CA800A6EE057BB7EEC77B83ED007A02F080F9EC
:100CB800304B9B7AFF2B79D02F4BB7EE009AB3EECF
:100CC8000EAB019A93ED007A146839EE477A0099D1
:100CD800029F0C44B7EEC77A01379FED1B8B9FED3F
:100CE8001CBB0297B0EE480BA7EE0B0BD4ED007AB5
:100CF80020EE0A0BB7EEC00B20EE270A11F068F8B9
:100D08001D4B84ED000A93ED007A019A39EE477A7B
:100D180000995468B7EEC77A0C4494ED000AA7EE20
:100D28000B8B28EE0A8BB7EEC88B28EE000A11F061
:100D38004FF8284684ED000A24E000BFAFF3008096
:100D480000000000008813419A9999999999B93F30
:100D5800CDCCCCCCCCCCEC3FB007002400009645E1
:100D680000409C48FFE1040001E20400AD8BDB6811
:100D780060090024400500242000002400E204004B
:100D880000881300082111F006F80821484611F0E0
:100D980002F80821404610F0FEFF059BBB427FF495
:100DA80015AE0FB0BDEC088BBDE8F08F019A082096
:100DB800009913680B44D3F800A05368CDF830A00D
:100DC8000B441B680D935F4B1F68079710F0E5FFF6
:100DD8006C230CAA0446069003FB0763DFED5A7ADE
:100DE800D3ED076A93ED087AFDEEE66A5F68BDEE1B
:100DF800C77A93ED0C5A0897CDED036A17EE103AAF
:100E080003CA16EE902A206007EB820B61609BED07
:100E1800007A0BF59C12B4EEE77A104602F50062F0
:100E2800DFED497AF1EE10FAA8BFCBF800A092EDF9
:100E3800007AB4EEE77AF1EE10FA02DB0699496817
:100E48001160039A4149D21A002AB8BF5242891A3E
:100E58009142A8BF1146012969DD9A0007EE901A50
:100E6800DFF8E8E08C46089FF8EEE74A9E440B95C9
:100E780001230896CDE909898046914628E006FBBA
:100E8800110107EE903A07EB0902314808F50064B2
:100E9800F8EEE77A92ED007A10449BED006AD4ED03
:100EA800006A07EB8101C7EEA45AD0ED007A284A00
:100EB80001330A449C4536EE476A76EEE76AA5EEAA
:100EC800867AE5EEA67A81ED007AC2ED007A2AD01C
:100ED8000EEB030A1F4AAEEB03041C4E154682FBB9
:100EE8000A124FEAEA71B5EEC05A1B48C1EB6241DB
:100EF80085FB0425E217F1EE10FA06FB11A1C2EBFF
:100F080065420844154906FB1242154CA1FB0051E5
:100F18001444124A4FEA9141A2FB0452AFD5910CF6
:100F280006FB1141ADE7DDE909890B9D089E079A8B
:100F38006C230698082103FB0263039A5A6110F098
:100F48002AFFB9E6B40400240000C8C200E2040085
:100F580000881300AD8BDB6801E204005917B7D194
:100F6800FFE10400002241604FF07C518261C262BF
:100F780002634265C2654FF07E52C16301644FF05F
:100F88004041826502664FF08042416302218263DC
:100F9800094A8162C261026230B400240125C4603A
:100FA80004744461446280F86840044C0572056525
:100FB800C46430BC704700BFE03F9C486F12033BDD
:100FC8002DE9F84FDFF8A0A14FF00109614E002488
:100FD800504603254FF0804BDFF890815E4F2DED92
:100FE800048B00F0BDFC5D4A0021706886ED000AA4
:100FF80011F086FBF36CF7EE008AC6F84890B1EE64
:10100800088A7364F460347403F0E8FEA5FB0023D7
:101018009FED539AC6ED168AC11A86ED178A86ED9A
:10102800159A03EB510386F86840C6F860B09B0F29
:10103800C3EBC373C01A484538BF484630655046AD
:1010480000F08EFC454A2146D8F8040088ED000AD5
:1010580011F056FBD8F84C30C8F80C40C8F84430AA
:1010680088F81040C8F8489003F0B8FEA5FB0021A6
:101078000346504688ED159AA3EB010CC8ED168A75
:1010880088ED178A01EB5C01C8F860B088F8684001
:10109800890F344EC1EBC1715B1A4B4538BF4B46C3
:1010A800C8F8503000F05CFC2C4A2146786887ED7F
:1010B800000A11F025FBFB6CFC607B643C74C7F8EC
:1010C800489003F08BFE0346504687ED159AA5FB22
:1010D8000321C7ED168AA3EB010C87ED178AC7F821
:1010E80060B001EB5C0187F86840890FC1EBC17102
:1010F800591A494538BF4946396500F031FC174A45
:101108002146706886ED000A11F0FAFAF36CC6F809
:1011180048907364F460347403F060FEA5FB0035F6
:1011280086ED159A431BC6ED168A86ED178A05EBE0
:101138005305C6F860B086F86840AB0FC3EBC373BD
:10114800C31A4B45BDEC048B38BF4B463365BDE82D
:10115800F88F00BF500500248006002400102700E7
:101168000000000018070024F0040024E80500240B
:10117800984A01239FED980A98482DE9F04F97B0B7
:101188005178127800248DF8191001258DF818204F
:101198001A4606994FF0020800948DED050A01F0F1
:1011A800D1FE8F4B9DED050A5A781B788DF81D20CE
:1011B8008DF81C30012307991A460094894801F0DC
:1011C800C1FE894B9DED050A5A781B788DF82120C0
:1011D8008DF82030012308991A460094834801F0BD
:1011E800B1FE834B9DED050A5A781B788DF82520B2
:1011F8008DF82430012309991A4600947D4801F09E
:10120800A1FE7D4B9DED050A5A781B788DF82920A3
:1012180022468DF8283023460A990095774801F030
:1012280091FE7749009523464878224609788DF83B
:101238002D008DF82C109DED050A0B99714801F0D1
:1012480081FE714BDFF808B25A781B7858468DF842
:10125800312022468DF830300C999FED6C0A01F050
:10126800FFFD6B4B6B4D5A781B7828468DF835205F
:1012780022468DF83430AA469FED670A0D998DED08
:10128800050A01F0EDFD654B654E5A781B7830462E
:101298008DF8392022468DF838309DED050A0E99D3
:1012A80001F0DEFD5F4B22465F4C59781B782046E3
:1012B8008DF83D10A1468DF83C309DED050A0F993B
:1012C80001F0CEFD594B5A4F9C4603F11C0503F122
:1012D800380403F1540EBBE80F00ACE80F009BE89C
:1012E8000700ACE803002CF8022B120C8CF8002045
:1012F800BAE80F000FC59AE8070003C525F8022BC6
:10130800120C2A700FCE0FC44A4A53788DF8413018
:10131800137896E8070003C424F8022B120C8DF802
:1013280040302270B9E80F00AEE80F0099E80700D6
:10133800AEE803002EF8022B120C38468EF8002077
:101348003D4A537810998DF8453013783B4ACDF8CB
:1013580008808DF8443053788DF849301378384A2E
:101368008DF8483053788DF84D3013788DF84C301F
:10137800BDF84830BDF84C20ADF80030ADF8042079
:101388000822119B01F068FE2E4B07F112005A78D3
:101398001B788DF8512042468DF85030149901F091
:1013A80047FE294B424607F1240059781B788DF8EF
:1013B80055108DF85430159901F03AFE0423032294
:1013C8003946224801F082FE204817B0BDE8F04FA8
:1013D80002F08AB82C00002400000000D805002480
:1013E80034000024700600243C0000240807002470
:1013F80044000024A00700241C0000243005002419
:101408002400002440050024280000240000FA4499
:10141800300000245406002400007A4438000024D8
:10142800EC0600244000002484070024440400241F
:10143800B80400241000002404000024080000243C
:101448000C000024140000241800002408050024BF
:10145800BC05002438B50D1E1FDB104CC0EBC000C6
:1014680004EB80049FED0E0A204601F01DFD204686
:1014780001F02CFD64210B48013D00F04DFAB7EE58
:10148800000A204601F010FD204601F01FFD6421EE
:10149800044800F041FA6B1CE4D138BD4404002430
:1014A80000000000F004002438B5144D04462DED6A
:1014B800028B2846B0EE408A01F07AFD104B6C2072
:1014C80000FB0430436A33B1012B01D180ED108A4F
:1014D800BDEC028B38BDD0ED0E7AF6EE006A90EDC9
:1014E8000D7AAB7A37EEC77AFF2B08FE268AD7EE3D
:1014F800087ABDEC028BC0ED0B7A38BD30050024AC
:10150800B007002410B5394C204601F051FD23796D
:1015180013B1A37A7F2B2FD0354C204601F048FD1C
:10152800237913B1A37A7F2B1FD0324C204601F0C8
:101538003FFD237913B1A37A7F2B0FD02E4C204681
:1015480001F036FD237943B1A37A7F2B05D12B4BCC
:101558001868032822D003221A6010BD274B186888
:10156800022836D002221A60E8E7244B18680128BE
:1015780022D001221A60D8E7204B186810B1002247
:101588001A60C9E71E4BD3E90912013191FBF2F445
:1015980002FB14115962FFF75DFFBDE7184BD3E951
:1015A8005A12013191FBF2F402FB1411BDE810400C
:1015B800C3F86811FFF74EBF114BD3E9241201316C
:1015C80091FBF2F402FB1411C3F89010FFF742FFED
:1015D800ABE70B4BD3E93F12013191FBF2F402FB6D
:1015E8001411C3F8FC10FFF735FFA7E7D80500244E
:1015F8007006002408070024A0070024B40400246F
:10160800B007002438B52D4C032200212C4D20466C
:101618002DED028B01F08EFF00222046B7EE008AE6
:10162800114685ED0F0A01F085FF012200212046B1
:1016380085ED2A0A01F07EFF02220021204685ED71
:10164800450A01F077FF05220021204685ED600A52
:1016580001F070FF002038EE400AFFF725FF07224F
:101668000021204601F066FF012038EE400AFFF70E
:101678001BFF06220021204601F05CFF022038EE05
:10168800400AFFF711FF04220021204601F052FF13
:10169800032038EE400AFFF707FF0121204601F03A
:1016A80039FF084B0221204683ED000A01F032FF82
:1016B800054BBDEC028B83ED000A38BD08050024FC
:1016C800B007002420000024600900240000000066
:1016D80070B5194C194D04F5D8762DED028B94EDA3
:1016E800068A6C341648BDEEC88A18EE103A5B00BC
:1016F80008EE103A00F034F9B8EEC88A88EE000A0D
:1017080010F046FC2846B7EEC00A9FED097B30EE84
:10171800070BB7EEC00B01F0C7FB284601F0D6FB5C
:10172800B44205F11C05DAD1BDEC028B70BD00BFD7
:101738009A9999999999F13FB00700244404002493
:10174800F004002408B500210C4800F0E5F9FFF783
:1017580037FCFFF70DFD0421084800F005F90321C7
:10176800064800F0E1F80649044800F0D9F8FFF708
:10177800C9FEFFF747FFFFF7ABFFF8E7F0040024C7
:10178800B90900082DE9F84F48480025484C6C274E
:1017980048492246056045610562C56310F0F6FABE
:1017A80022464549454810F0F1FA22464249444844
:1017B80010F0ECFA22464049424810F0E7FA224677
:1017C8003D49414810F0E2FA404E22463A49404825
:1017D80010F0DCFA224638493E4810F0D7FA224683
:1017E80031463D4810F0D2FA224631463B4810F0C7
:1017F800CDFA224631463A4810F0C8FA2246314618
:10180800384810F0C3FA22463749284610F0BEFA85
:10181800364B37491846DFF8F080FFF7A3FB334B08
:10182800DFF8E8B022461846414610F0AFFADFF874
:10183800E0A030495846FFF795FB224641465846F6
:1018480010F0A4FADFF8CC902B495046FFF78AFB3A
:1018580022464146504610F099FA28494846284EF3
:10186800FFF780FB22464146484610F08FFA1F4B8F
:101878003A463046194610F035FF3A465946F019AF
:1018880010F030FF3A46514606F1D80010F02AFF12
:101898003A46494606F5A27010F024FF224628462B
:1018A8001849BDE8F84F10F071BA00BFF0040024E1
:1018B80000000024A50900089D090008D805002497
:1018C8007006002408070024A0070024A1090008C6
:1018D8003005002440050024BC05002454060024DB
:1018E800EC06002484070024AD09000850050024F4
:1018F800003075C000204EC0001027C0000000C096
:10190800B0070024B1090008A9090008E805002467
:101918008006002418070024084603F061BA00BFB7
:10192800143001F069BA00BF38B500F11405044657
:101938002DED028B284601F01BFA284601F014FA17
:101948002846B0EE408A01F0FDF9D0ED007AF8EEB5
:10195800677A88EE277ABDEC028B84ED0E7A38BD63
:10196800143001F001BA00BF38B500F1140504467F
:101978002DED028B284601F0E9F9284601F0F4F92B
:101988002846B0EE408A01F0DDF9D0ED007AF8EE95
:10199800677A88EE277ABDEC028B84ED0E7A38BD23
:1019A80010B540F203338EB000244FF60B7240F2AC
:1019B8000341ADF8083009A80123ADF81020ADF8AF
:1019C80024202246ADF80C100094029907940C9438
:1019D800CDE90544CDE90A4401F0B4FE04A8012389
:1019E80022460399009401F0ADFE09A801F090FF8A
:1019F80010B901200EB010BD04A801F089FFA04263
:101A08000CBF022020460EB010BD00BF2DE9F041EA
:101A180003239AB0012700240646CDE914373B4B2F
:101A2800CDE9104340F20453CDE91647ADF84830EC
:101A3800FFF7B6FFB842054625D0022845D040F644
:101A48000132334B0DF12C081894ADF82C200B986B
:101A58001997CDF84A3000F0E3F810A906F13C00D8
:101A680002F09EFF302003224FF07E5341460D9333
:101A78000E93CDE90B02F26B06F1140001F02AF97E
:101A88001AB0BDE8F0811023214A06A906908DF806
:101A980028300DF12C081F4BCDF84A2007930294EB
:101AA800CDE91804CDE9080402A802F0B1F9082329
:101AB800029A03A94046ADF80C508DF80E400495E3
:101AC80005930B9400F0ECF8C7E700200121104BB8
:101AD8000DF12C083A460094CDF84A304FF60B73B6
:101AE8000C94ADF82C302346CDE9180140F60131AD
:101AF8004046ADF818100699CDE90D4401F022FED4
:101B08002146404601F010FFA7E700BF0402040485
:101B1800040604030704010B2DE9F04704462DEDE4
:101B2800028B82B000294DD0012140F2011200231E
:101B38000091ADF804208DF80630364A0127364B5F
:101B480004F10409354904F12908626040F202727F
:101B5800A36040F60663E16004F1250AA4F8252095
:101B6800A4F82930278284F8277084F82B7003F0B2
:101B7800D3FA054603F036F96946064650BB4DB31D
:101B880004F130008DF8067003F04EFA072D3CD1B1
:101B980004F114052046FFF739FF284601F0E4F860
:101BA8002846B0EE408A01F0CDF8D0ED007AF8EE84
:101BB800677A88EE277A84ED0E7A02B0BDEC028B44
:101BC800BDE8F08740F2011300918DF80610ADF8DA
:101BD8000430B2E704F1300003F026FA072D11D0E3
:101BE8004946204602F05CFB0EB9002DD0D1504684
:101BF80001F0A4FE404601F0A1FE04F1120000F03D
:101C080079F9C5E7002EF2D1C2E74946204602F02D
:101C180047FBBDE70508050905070506050A060689
:101C280010B584B003460124ADF8040003A8ADF84C
:101C38000C30ADF80E4001F081FE214603A801F0FA
:101C480067FF204603F0CCF8002103A801F060FFED
:101C5800204603F0C5F8214603A801F059FF04B057
:101C680010BD00BF10B5C2F3002384B00C46017C40
:101C78008DF80D2043EA4402FA2402238DF80C2043
:101C880003AA009402F05AF918B10124204604B0BE
:101C980010BD04460A2003F0A3F8204604B010BD86
:101CA800034670B543F8042B044684B007C983E89B
:101CB8000700A37983B91A210B461E22FA2523743B
:101CC8002046ADF80C20022303AA009502F036F94D
:101CD80028B1012004B070BD1B210B46EDE70A2096
:101CE80003F07EF84FF4B85200950223ADF80C20AB
:101CF800204603AA217C02F021F90028E9D10A2014
:101D080003F06EF841F2027200950223ADF80C2040
:101D1800204603AA217C02F011F90028D9D10A2013
:101D280003F05EF8042200950223ADF80C2020464B
:101D380003AA217C02F002F90028CAD10A2003F084
:101D48004FF8062200950223ADF80C20204603AA7E
:101D5800217C02F0F3F80028BBD10A2003F040F8F8
:101D680041F2082200950223ADF80C20204603AA70
:101D7800217C02F0E3F80028ABD10A20064603F0E4
:101D88002FF80095022303AA217C2046ADF80C60A9
:101D980002F0D4F800289CD1304603F021F80095D1
:101DA80022790C232046002A8DF80C3003AA4FF024
:101DB800020314BF622142218DF80D10217C02F02C
:101DC800BDF8002885D1304603F00AF82279D4E915
:101DD80002310B43DBB20AB943F0400362790AB11E
:101DE80043F020030E22FA258DF80D302046009589
:101DF80002238DF80C2003AA217C02F09FF800280A
:101E08007FF467AF0A2002F0EBFF1022009502234F
:101E1800ADF80C20204603AA217C02F08FF8002898
:101E28007FF457AF0A2002F0DBFF1221009502234E
:101E3800ADF80C1003AA217C204602F07FF8002898
:101E48007FF447AF0A2002F0CBFF01220921204688
:101E5800FFF708FF003818BF01203BE7F0B5102353
:101E680087B0234C012200250126002702A920461D
:101E78000195CDE902234FF48052CDE9046709F0BA
:101E880003FF642003F0EEFB02A94FF480522046C2
:101E9800CDE9046702261027CDE9026709F0F4FEB0
:101EA8000322102302A92046CDE90223002304229D
:101EB800CDE904234FF4805209F0E6FE40F23223C4
:101EC800042202A9019310232046CDE90223019A96
:101ED800012305924FF48052049309F0D5FE40F691
:101EE8000601204609F0F0FE284607B0F0BD00BF05
:101EF8006C0900241C4B00221C494FF0400C30B5E3
:101F0800054689B00220596007219A601A620124A7
:101F1800DA620A224FF4006EDC6006922022CDE9D4
:101F2800000104200821CDE9020103201021CDE998
:101F3800040108206946C3E904024FF4C072181D61
:101F4800C3E906C24FF48052C3E909E209F072FE00
:101F580038B92846FFF782FF003818BF012009B0BA
:101F680030BD204609B030BD680900244041005208
:101F7800614A0021D0B513688EB00A91002B40F059
:101F8800B9805E4B01214FF683700C241160022149
:101F9800D3F8D4200026032742F48052C3F8D42073
:101FA800D3F8D42002F480520092009AD3F8E020AB
:101FB80042F01002C3F8E020D3F8E02002F010024B
:101FC8000192019AD3F8E02042F04002C3F8E020E1
:101FD800D3F8E02002F040020292029AD3F8E020FF
:101FE80042F00802C3F8E020D3F8E02002F008022B
:101FF8000392039AD3F8E02042F48072C3F8E020F9
:10200800D3F8E02002F480720492049AD3F8E02016
:1020180042F08002C3F8E020D3F8E02002F080020A
:102028000592059AD3F8E02042F02002C3F8E02098
:10203800D3F8E02002F020020692069AD3F8E020B6
:1020480042F00402C3F8E020D3F8E0300C9403F027
:10205800040307930323079A0B93CDE9080108A902
:10206800274805F085F948F23712022308A92548C0
:102078000C94CDE90823CDE90A6705F079F94CF20B
:102088000372022308A920480C94CDE90823CDE95E
:102098000A6705F06DF940F2FF62022308A91B48A0
:1020A8000C94CDE90823CDE90A6705F061F94FF6EC
:1020B8000C72022308A916480C94CDE90823CDE92F
:1020C8000A6705F055F94FF63F02022308A911489F
:1020D8000C94CDE90823CDE90A6705F049F92022D7
:1020E800022308A90A480C94CDE90A67CDE9082318
:1020F80005F03EF90EB0D0BD640900240044025832
:102108000010025800180258000C0258002002580B
:10211800001C0258001402582DE9F04FDFF8108413
:1021280006460D46144608F118002DED028B89B0BD
:1021380000AF02F02DFDD8F8183073B3D8F81C3072
:10214800D8F80490002B43690BBF4FF0080A4FF0F2
:10215800100A4FF0020B4FF0040BB9F1000F2AD010
:10216800A200EA46012B02F1070222F00702ADEBBA
:10217800020D6846ADEB020D694600F03F81022B67
:1021880000F0D680002B6FD02246C847D5462437AA
:10219800BD46BDEC028BBDE8F08FD8F81C30002B93
:1021A800F5D0D8F804904FF0080A4FF0020B4369B5
:1021B800B9F1000FD4D1FB61D8F80030BB61002B16
:1021C800E5D0D54802F056FD6B46BBF1020F7861A9
:1021D80008EE103AFB6900F083816A465146A2EB8B
:1021E800C40295466200EA46B2FBFBF2AAEBC400C1
:1021F80085460AEB8200EE46F861ADEB010DF86901
:102208000EEB820CC7F810C0EC46ADEB010D00EBED
:102218008201CCF80400CCF8081001EB820138697F
:10222800E946CCF80C1000EB8201CCF800A001EBD9
:102238008202C9E900E0C9E90212012B00F06483B7
:10224800022B00F06C82002B00F080816208494666
:102258006046BB69984718EE103A24379D46BD463C
:10226800BDEC028BBDE8F08F002C8DD01A46D8ED5E
:102278000C6A9FEDB27A8446331D36F922E00CF1E0
:10228800080C07EE90EA33F922E00232F8EEE77A1A
:10229800944267EE877A67EEA67A4CED027A07EEEB
:1022A80090EAF8EEE77A67EE877A67EEA67A4CED61
:1022B800017AE2D8F9612246C847984ED8ED0D6AEE
:1022C8000020F9692B1D9FED9E7A9FED9E6ADFED38
:1022D8009E5A22E0F4EEC67AF1EE10FAC0F2C884F3
:1022E80047F6FE72D1ED017A45F8202066EEA77A0E
:1022F800F4EEC77AF1EE10FA40F2F080F4EEC67A06
:10230800F1EE10FAC0F2D58447F6FE7243F82020A9
:102318000230083184427FF639AFD1ED007A66EE9B
:10232800A77AF4EEC77AF1EE10FAD3D83246D9E795
:10233800002C3FF429AFD8ED0C6A84469FED787ADB
:102348000022331D8E4656F822100CF1080C07EEB9
:10235800901A53F822100232F8EEE77A944267EEA8
:10236800877A67EEA67A4CED027A07EE901AF8EEB5
:10237800E77A67EE877A67EEA67A4CED017AE2D8BB
:1023880071462246C7F81CE0C847664ED8ED0D6A6C
:102398000020F9692B1D9FED6A7A9FED6A6ADFF8C4
:1023A80094C120E0F4EEC67AF1EE10FAC0F2798416
:1023B8003246D1ED017A45F8202066EEA77AF4EE90
:1023C800C77AF1EE10FA40F28780F4EEC67AF1EEA1
:1023D80010FAC0F25E84324643F8202002300831F9
:1023E80084427FF6D3AED1ED007A66EEA77AF4EE9A
:1023F800C77AF1EE10FAD5D86246DAE7002C3FF436
:10240800C3AED8ED0C6A86469FED477A4FF0000CB4
:10241800331D56F82C200EF1080E82F40002A2F5A6
:10242800000207EE902A53F82C200CF1020CF8EE6B
:10243800E77A82F400026445A2F5000267EE877A23
:1024480067EEA67A4EED027A07EE902AF8EEE77A62
:1024580067EE877A67EEA67A4EED017AD9D8F961E8
:102468002246C847314ED8ED0D6A0020F9692B1D68
:102478009FED337A9FED336ADFF8BCC01FE0F4EEBE
:10248800C67AF1EE10FAC0F2FC833246D1ED017A39
:1024980045F8202066EEA77AF4EEC77AF1EE10FA36
:1024A80018D9F4EEC67AF1EE10FAC0F2DA833246A1
:1024B80043F820200230083184427FF667AED1ED20
:1024C800007A66EEA77AF4EEC77AF1EE10FAD6D85B
:1024D8006246DBE76246EBE762467DE7324615E790
:1024E800A100D6466208073121F00701ADEB010DC6
:1024F800EA46ADEB010D6946ADEB0E0D0AEB820025
:10250800EC46ADEB0E0D01EB8202F861E946CCE931
:1025180000A0C9E9001290E6BC0900240280FFFF70
:10252800000000300082FF7F0000003482FF7F003F
:10253800A0090024007E00807E0080FF0000003893
:1025480004FF7FBF04FF7F3F00FEFF46002C00F022
:10255800C982BBF1020FD8F8242000F0FA82796909
:10256800C7F8049002EB810E5FED0C5A8A00DCF884
:1025780008100EF104007A611A46DCF80C303B6151
:10258800331DD7F810903D61FD69C7E902CB8C4631
:10259800834636F92210D8ED0C7A06EE101A33F974
:1025A800221006EE901A3EF92210B8EEC66A07EE1F
:1025B800101AF8EEE66A3BF92210B8EEC77A26EE52
:1025C800256A66EEA56A27EE257A26EE276A66EE64
:1025D800A76A27EE277A07EE901A51080232F8EE1A
:1025E800E77A0AEB8100944280ED006A05EB8100EE
:1025F80067EEA57AC0ED006A0CEB810009EB81015A
:1026080080ED007A98ED0C7A67EE877AC1ED007A52
:10261800BFD8D7F804903D69D7E902CB6046620875
:10262800BB6949469847D8F82C307A69D8ED0D6AC5
:102638001A441FED3D7A1FED3D6A2B1D904602F1AD
:10264800040A5FED3F5A0022A84ED9E900EC51E098
:10265800F4EEC67AF1EE10FAC0F2C78247F6FE70C1
:1026680045F822000CEB0100D0ED007A66EEA77A5F
:10267800F4EEC77AF1EE10FA4BD9F4EEC67AF1EE21
:1026880010FAC0F2BA8247F6FE70BBF1020F43F8A7
:1026980022002BD0D9F808000844D0ED007A66EE65
:1026A800A77AF4EEC77AF1EE10FA36D9F4EEC67AC4
:1026B800F1EE10FAC0F2CD8247F6FE7048F822001B
:1026C800D9F80C000144D1ED007A66EEA77AF4EE51
:1026D800C77AF1EE10FA1ED9F4EEC67AF1EE10FAC6
:1026E800C0F2AF8247F6FE714AF8221002329442D5
:1026F8007FF6B1AD51080EEB81008900D0ED007A6C
:1027080066EEA77AF4EEC77AF1EE10FAA0D8304652
:10271800A6E73046B9E73146E6E73046CEE7002C73
:1027280000F0E081BBF1020FD8F8243000F0E1811D
:102738007A69DCF8081003EB820EC7F8049093005E
:10274800DFED6B5A0EF1040000227B61DCF80C30DF
:102758003B61331DD7F810903D61FD69C7E902CB95
:102768008C46834656F82210D8ED0C7A07EE101ADC
:1027780053F82210B8EEC76A07EE101A5EF8221056
:10278800F8EEC76A07EE101A26EE256A5BF82210E3
:10279800B8EEC77A66EEA56A26EE276A27EE257A8E
:1027A80066EEA76A27EE277A07EE901A51080232DA
:1027B800F8EEE77A0AEB8100944280ED006A05EBB7
:1027C800810067EEA57AC0ED006A0CEB810009EB89
:1027D800810180ED007A98ED0C7A67EE877AC1ED79
:1027E800007ABFD8D7F804903D69D7E902CB604694
:1027F8006208BB6949469847D8F82C307A69D8ED01
:102808000D6A1A449FED3E7A9FED3E6A131D92466B
:10281800DFF8E4C00022FB612B1D364ED9E9008E9B
:102828004EE0F4EEC67AF1EE10FAC0F2FC813046C2
:1028380045F822000EEB0100D0ED007A66EEA77A8B
:10284800F4EEC77AF1EE10FA49D9F4EEC67AF1EE51
:1028580010FAC0F2EF813046BBF1020F43F82200B4
:102868002AD0D9F808000844D0ED007A66EEA77A95
:10287800F4EEC77AF1EE10FA35D9F4EEC67AF1EE35
:1028880010FAC0F2C98130464AF82200D9F80C0083
:102898000144D1ED007A66EEA77AF4EEC77AF1EE3C
:1028A80010FA1ED9F4EEC67AF1EE10FAC0F2AD8134
:1028B8003146F86940F82210023294427FF6CBACD8
:1028C800510808EB81008900D0ED007A66EEA77AFE
:1028D800F4EEC77AF1EE10FAA3D86046A8E760468E
:1028E800BAE76146E5E76046CEE700BF0280FFFF32
:1028F800000000300082FF7F007E0080000000346E
:1029080004FF7FBF04FF7F3F002C00F0EB807A6953
:102918000021D8F82430C7F8109003EB820ED7F8BE
:102928001C909300FD610EF104021FED0C6A7B619F
:10293800331D154656F821204808D8ED0C6ABBF11E
:10294800020F82F40002A2F5000207EE902A53F863
:10295800212082F40002B8EEE77AA2F5000227EE01
:10296800067A07EE902A0AEB8002F8EEE77A27EE5D
:10297800267A67EE867A82ED007A09EB80024FEAC2
:10298800800067EEA67AC2ED007A27D05EF8212093
:1029980082F40002A2F5000207EE902A55F82120E1
:1029A80082F40002B8EEE77AA2F5000227EE067A72
:1029B80007EE902ADCF80820F8EEE77A024427EEC2
:1029C800267A67EE867A82ED007A98ED0C7ADCF842
:1029D8000C2067EE877A0244C2ED007A02318C42FD
:1029E800A8D8D7F8109060466208BB694946FD69C7
:1029F8009847D8F82C307A69D8ED0D6A1A441FED3B
:102A0800407A1FED406A131D9246DFF8C4C20022C7
:102A1800FB612B1DAB4ED9E9008E4EE0F4EEC67A71
:102A2800F1EE10FAC0F2C580304645F822000EEBF0
:102A38000100D0ED007A66EEA77AF4EEC77AF1EEDF
:102A480010FA49D9F4EEC67AF1EE10FAC0F2BF8056
:102A58003046BBF1020F43F822002AD0D9F808000B
:102A68000844D0ED007A66EEA77AF4EEC77AF1EE64
:102A780010FA35D9F4EEC67AF1EE10FAC0F2AE804B
:102A880030464AF82200D9F80C000144D1ED007A0A
:102A980066EEA77AF4EEC77AF1EE10FA1ED9F4EED4
:102AA800C67AF1EE10FAC0F28B803146F86940F828
:102AB8002210023294427FF6CEAB510808EB810017
:102AC8008900D0ED007A66EEA77AF4EEC77AF1EEC7
:102AD80010FAA3D86046A8E76046BAE76146E5E77A
:102AE8006046CEE7224649466046BB699847FFF7ED
:102AF800B2BBC7F810B0002298ED0C6A331DDFEDA9
:102B0800726AD7F81CB0786956F8221007EE901A46
:102B180053F82210B8EEE77A07EE901A51080232FD
:102B2800F8EEE77A27EE267A0AEB810E94420BEB51
:102B3800810167EEA67A27EE067A67EE867A8EED31
:102B4800007AC1ED007ADFD88300D7F810B07B6136
:102B58004DE61A46C7F810B098ED0C6A331DDFED44
:102B68005B6AD7F81CB0786936F9221007EE101A9C
:102B780033F9221007EE901AB8EEC77A51080232DC
:102B8800F8EEE77A27EE267A0AEB810E94420BEBF1
:102B9800810167EEA67A27EE067A67EE867A8EEDD1
:102BA800007AC1ED007ADFD88300D7F810B07B61D6
:102BB80034E5F0EE675AFEEEE45A15EE900A34E773
:102BC800F0EE675AFEEEE45A15EE901A6EE7F0EE54
:102BD800675AFEEEE45A15EE900A3AE7F0EE675AA5
:102BE800FEEEE45A15EE900A4BE767EEA57AFDEE85
:102BF800E77A17EE900A00B232E567EEA57AFDEEA5
:102C0800E77A17EE900A00B23FE5F0EE675AFEEE5B
:102C1800E05A15EE901A4CE6F0EE675AFEEEE05ACE
:102C280015EE900A30E6F0EE675AFEEEE05A15EE21
:102C3800900AFDE5F0EE675AFEEEE05A15EE900AAE
:102C48000AE667EEA57AFDEEE77A17EE901A09B262
:102C58004AE567EEA57AFDEEE77A17EE900A00B22C
:102C68002CE5F0EE675AFEEEE45A15EE902A1FE4C2
:102C780067EEA57AFDEEE77A17EE902A12B2FFF713
:102C880031BBF0EE675AFEEEE45A15EE902AFFF7D4
:102C9800FDBBF0EE675AFEEEE05A15EE902AFFF7FC
:102CA8009BBBF0EE675AFEEEE05A15EE902AFFF74E
:102CB80080BB67EEA57AFDEEE77A17EE902A12B28E
:102CC800FFF724BB82FF7F000000003000000038BF
:102CD8007E0080FF30B5184C154685B0046004F1BD
:102CE800080EEC460FC98EE80F00D4ED047AF5EE15
:102CF800C07A8CE80F00F1EE10FA1ADDB7EE006A20
:102D080094ED057A27EE277AC6EE276A84ED0D7AC8
:102D1800C4ED0C6A6DB1204640F8185F01F038FF29
:102D2800064903690020064A2162A262E36005B0F1
:102D380030BD012005B030BDA009002400200030BE
:102D48000000003000680830704700BFB1F5807F90
:102D580003680A4628BF4FF48072B1F5807F9A60F5
:102D680094BF0020012070470068183001F070BF40
:102D780070B504688AB0A369E160CBB104F11805A5
:102D8800284601F005FF8446EE46E668BCE80F00D9
:102D9800AEE80F00BCE80F00AEE80F009CE80300A7
:102DA8008EE8030069462846049601F0F9FDF8B953
:102DB800E069D8B104F11C05284601F0E9FE844613
:102DC800EE46E468BCE80F00AEE80F00BCE80F0070
:102DD800AEE80F009CE803008EE803006946284629
:102DE800049401F0DDFD003818BF01200AB070BD61
:102DF80001200AB070BD00BF30B5046883B00D462D
:102E0800E3694BB1A3680020E26A616A9B00009005
:102E180004F11C0001F0BEFEA3680748A26A9B00EB
:102E2800216A009004F1180001F0B4FE0020C4E902
:102E3800005003B030BD00BF2121000810B4074B7B
:102E48004FF07E5130240022032019619C60D86025
:102E58005DF8044B5961C3E906227047A0090024B4
:102E680030B52DED028B83B0044601231546ADF82D
:102E780004101730BDF80410B0EE408A0180637664
:102E880000F05CFDB5FA85F3002200215B09257589
:102E9800A16084ED048AA5756375C4E9002203B0B6
:102EA800BDEC028B30BD00BF20EE007ADFED067A64
:102EB80027EE000A60EE277A80ED020AFCEEE77A38
:102EC800C0ED017A704700BF00FF7F4790ED046AAC
:102ED800B7EE007ADFED0E5A0346D0ED036AC5EE71
:102EE800867A77EEA67AF4EEC77AF1EE10FAC8BFC2
:102EF80077EEC77A90ED027AB4EEE77AC0ED037AFE
:102F08001730F1EE10FACCBF597D997D00F000BE64
:102F18000000F042704700BF064A0749074808B555
:102F28000EF034FF034A04490548BDE808400EF096
:102F38002DBF00BF000000241D2F0008D809002461
:102F4800DC090024F0B51D4683B004461646A5F1F9
:102F580001059DF82070ADF8041001F03FFFB5FAA7
:102F680085F50023BDF80420012F4FEA5515667139
:102F78002060E572E2802371A372237209D0022FC8
:102F88000FD00123A01D637203B0BDE8F04000F02C
:102F9800D5BC0223A01D637203B0BDE8F04000F069
:102FA800CDBCA01D637203B0BDE8F04000F0C6BC04
:102FB80038B5044601F012FF0022236822718342CB
:102FC80010D00122A57AE37A954020602271A01DD5
:102FD8006DB243B900F08EFD40B22843C0B27F28DD
:102FE800A0720AD038BD00F085FDB0FA80F0400923
:102FF8002843C0B27F28A072F4D101F0EFFE07EE9B
:10300800900AF8EE677AC4ED037A38BD014805F0F6
:10301800B7BA00BFC8140024014805F0B1BA00BF10
:10302800C8140024014805F0ABBA00BFC814002436
:1030380000B583B04FF0000E4FF0030C4274ADF8AA
:103048000410BDF8043080F810E0A0F802C0038036
:1030580003B05DF804FB00BF00B583B0082AADF8E3
:1030680004104FF00301ADF800304180BDF800C0F6
:10307800BDF81010BDF804E0A0F804C001811146A5
:10308800BDF814C028BF0821042A9DF81830A0F8FC
:1030980000E0A0F80CC0017408D8022A0ED801D1AB
:1030A8000122C280437403B05DF804FB012243741B
:1030B800C2804281C28103B05DF804FB01224374DF
:1030C800C280428103B05DF804FB00BF2DE9F04FD8
:1030D800DFF81C8300258DB0C04C037008F1400355
:1030E8004260074601920E46202229464046C4F80F
:1030F8006831C4F86481CDE90255CDE90455CDE9BC
:103108000655CDE90855CDE90A550FF0F9FA202200
:10311800294604F5A170C4F83151C4F83551C4F8F2
:103128003951C4F83D510FF0EBFA019B84F848522D
:1031380084F830317A68002A6AD02B4604F59871F1
:10314800454606F1100A9E46F01856F803B0E218F4
:103158000EF1010ED0F80CC0D0F80490D0F8088019
:1031680044F803B0C2F80CC04FF0000CC2F8049049
:10317800C2F80880008A25F802CB10821AF80320CA
:1031880001F8012F002A70D07A684FF0010012333D
:10319800724584F84802D7D84FF4802290489DF8A9
:1031A800043008214FF000084FF00009C4F88431BA
:1031B8000023C4E95B020122C4F8743184F8803129
:1031C800C4E95E2194F84812C4E96489A9B3C4F833
:1031D8009821002284F8813184F888313B78C4E949
:1031E8006722002B38D0012200200121013B84F8FE
:1031F800A421C4E96C01082B30D8DFE813F0BD0026
:10320800C200C700CC00D100D600DB00E100E80016
:103218009DF804300121C4F87421C4F884314FF4B6
:10322800802384F880216E4AC4E95B2308230022A6
:10323800C4E95E130023C4E964230123002284F84F
:103248008131002384F888310323C4F898313B780E
:10325800C4E96722002BC6D184F8A431614802F082
:1032680039FE034638B1FFBEFEE77A68123372456D
:103278003FF66AAF90E702A95A48029302F088FF26
:103288008246002876D1042240F2FF710A90CDE9E7
:10329800081294F83021002A00F0F3804FF0060855
:1032A8000AEBCA034FEACA0904EB43035B7C072B0A
:1032B80007D8DFE803F0595C5653504D4A040723FA
:1032C80007930FFA8AF6D14406EBC60604EB4909C0
:1032D80004EB46077500384600F030FB99F81030CB
:1032E800042B00F3AA80022B00F3BD8000F0B98004
:1032F80004EB0A03002283F8202114F81630002B6F
:1033080078D0022B00F08A80012B40F0B2807B78C5
:10331800012B00F0B080002B334B18BF002305A908
:103328003048CDE9053802F001FA002840F0AC80B9
:103338000AF1010A94F830315FFA8AFA534540F2EB
:10334800A0802A4B53F82A80AAE706230793B8E7F8
:1033580005230793B5E704230793B2E703230793ED
:10336800AFE702230793ACE700230793A9E70123FC
:103378000793A6E7FFBEFEE703224023C4E96A23BA
:103388006CE707226023C4E96A2367E70F228023DA
:10339800C4E96A2362E71F22A023C4E96A235DE720
:1033A8003F22C023C4E96A2358E77F22E023C4E907
:1033B8006A2353E7FF224FF48073C4E96A234DE779
:1033C80040F2FF124FF49073C4E96A2346E740F2D3
:1033D800FF324FF4A073C4E96A233FE7E0090024F1
:1033E800002002404C0B00240002B0259C29010853
:1033F800004000307B78062B37D0072B3DD0022BBE
:103408004AD0032B4AD0002B4CD0012B48D0042B98
:103418004AD0052B254B18BF002380E77B78042B67
:1034280025D0052B2BD08BB3012B31D0022B31D0DB
:10343800032B1F4B18BF002371E70323043504EB4C
:103448000A0B4FF0000925448BF82031284609F172
:10345800010900F073FA9BF8203104354B45F5DC7F
:103468004BE70123EAE70223E8E7124B57E7124B41
:1034780055E7002353E7114B51E7114B4FE7114B29
:103488004DE70DB0BDE8F08FFFBEFEE70E4B46E7F7
:103498000E4B44E70E4B42E70E4B40E70E4B3EE720
:1034A8000E4B3CE70E4B3AE70E4B38E70000B84F9F
:1034B800002090360800900C1000C0102000F01476
:1034C8008000501D000180210004002A0008302ED1
:1034D800001060320040C03A0080F03E00005247C1
:1034E800000021430000844B38B5094C40F2FF72BC
:1034F8004FF0011104F5B675284602F0F7FD94F86F
:103508003021D4F864112846BDE8384002F062BB87
:10351800E0090024064B0F29D3F8643198BF03EB68
:1035280041031B8800EE103ABBEEC80A704700BF83
:10353800E0090024064B0F29D3F8683198BF03EB44
:10354800011333F8123000EE103ABBEEC80A704788
:10355800E0090024214B02689A4200D07047204AB3
:1035680000232048D2F8D81030B51F4C41F0200174
:1035780083B0C4F8D001092004F5E875C4E97503DF
:103588004FF48060C2F8D810D2F8D8204FF4006108
:10359800C4E9773094F8480202F02002C4F8E41134
:1035A8004FF40051984201922846C4F8E811C4E942
:1035B8007C33019B14BF00234FF48073C4F8EC31B3
:1035C80003F00CF808B1FFBEFEE704F5B673C4F8C3
:1035D800B851C4F8083203B030BD00BF0020024023
:1035E8000044025840000240E0090024014803F06A
:1035F8006DBB00BFB00B002402682DE9F84F4B4BA0
:103608009A4201D0BDE8F88F494D95F84832002B11
:10361800F8D095F83031002B77D0002405F10C094B
:1036280005F5A17605F59877A04613E003F00101AA
:1036380017F811BCA9F1080000F06AFABBF1010FF4
:1036480025D895F83031013409F112090236A2B2B1
:1036580093422BD917F8012F002AF4D0D5F86431FA
:103668000021327833F81400D5F8683103EB0413DD
:1036780023F81200338801339BB233805FFA83FA50
:103688003A789A42D2D88A46A6F80080D0E7CAF398
:103698004001A9F1040000F03BFABBF1020FCAF3A4
:1036A8008001CED0484600F033FACAE7002395F8E7
:1036B8004802204909229842C5F8D8314FF4806061
:1036C800C5F8D011C5F8D4214FF400614FF4005269
:1036D800C5F8DC3108BF4FF48073C5F8E821C5E9A7
:1036E800780100221448C5E97B32C5F8F42102F0BC
:1036F80075FF08B1FFBEFEE795F83021D5F86411D3
:103708000E48BDE8F84F02F065BA0A4909224FF49D
:103718008060C5F8D831C5E974124FF400614FF4E0
:103728000052C5E97730C5E97912DAE7002002408E
:10373800E009002440000240B00B00244C0B002498
:10374800704700BF10B592B0ADF804100180C9B23F
:10375800149C0B29C460C0E901233FD090F801C034
:10376800BCF10F0F3AD8022A3FD0032A02D0012A0F
:1037780000D000220E92012B02D0022B18BF00238A
:10378800022C0F932CD0032C2AD0012C28D00023F4
:103798000A29109327D85C4A02EB812202610A2980
:1037A80014D8DFE801F0A39587796B5D4F41332585
:1037B8000600564BD3F8E01041F48061C3F8E010DE
:1037C800D3F8E03003F480630C930C9B01230DA91C
:1037D800104603FA0CF30D9303F0CAFD12B010BDA6
:1037E8000A291094D7D90022D8E711220E92C2E7ED
:1037F800464BD3F8E01041F40071C3F8E010D3F859
:10380800E03003F400730B930B9BDFE73F4BD3F8D7
:10381800E01041F48071C3F8E010D3F8E03003F40D
:1038280080730A930A9BD1E7384BD3F8E01041F034
:103838008001C3F8E010D3F8E03003F08003099367
:10384800099BC3E7314BD3F8E01041F04001C3F8BE
:10385800E010D3F8E03003F040030893089BB5E785
:103868002A4BD3F8E01041F02001C3F8E010D3F858
:10387800E03003F020030793079BA7E7234BD3F817
:10388800E01041F01001C3F8E010D3F8E03003F085
:1038980010030693069B99E71C4BD3F8E01041F000
:1038A8000801C3F8E010D3F8E03003F008030593EB
:1038B800059B8BE7154BD3F8E01041F00401C3F8E2
:1038C800E010D3F8E03003F004030493049B7DE791
:1038D8000E4BD3F8E01041F00201C3F8E010D3F822
:1038E800E03003F002030393039B6FE7074BD3F821
:1038F800E01041F00101C3F8E010D3F8E03003F024
:1039080001030293029B61E7000002580044025839
:1039180008B5012143780069994089B203F030FF66
:10392800003818BF012008BD01230A464178006904
:1039380003FA01F189B203F029BF00BF8378022B93
:1039480030B504468FB037D0032B33D0012B31D09C
:1039580000230A93E378012B2AD0022B28D00023D6
:103968000B93002320460C9301F05AFD0546204690
:1039780001F05EFD23780990082B13D8DFE803F0E7
:103988001F3245586B7E91A40500594BD3F8E020AF
:1039980042F48072C3F8E020D3F8E03003F4807377
:1039A8000893089B09A9284603F0E2FC0FB030BD34
:1039B8000B93D6E70A93CDE711230A93CAE74C4B3A
:1039C80009A92846D3F8E02042F00102C3F8E02014
:1039D800D3F8E03003F001030093009B03F0C8FC28
:1039E8000FB030BD424B09A92846D3F8E02042F079
:1039F8000202C3F8E020D3F8E03003F00203019399
:103A0800019B03F0B5FC0FB030BD394B09A928461E
:103A1800D3F8E02042F00402C3F8E020D3F8E03005
:103A280003F004030293029B03F0A2FC0FB030BD25
:103A38002F4B09A92846D3F8E02042F00802C3F822
:103A4800E020D3F8E03003F008030393039B03F06E
:103A58008FFC0FB030BD264B09A92846D3F8E020CB
:103A680042F01002C3F8E020D3F8E03003F010036E
:103A78000493049B03F07CFC0FB030BD1C4B09A9D8
:103A88002846D3F8E02042F02002C3F8E020D3F81B
:103A9800E03003F020030593059B03F069FC0FB0A9
:103AA80030BD134B09A92846D3F8E02042F0400264
:103AB800C3F8E020D3F8E03003F040030693069BF8
:103AC80003F056FC0FB030BD094B09A92846D3F8BE
:103AD800E02042F08002C3F8E020D3F8E03003F0A1
:103AE80080030793079B03F043FC0FB030BD00BF72
:103AF8000044025838B5054601F092FC04462846B1
:103B080001F096FC01462046BDE8384003F038BE77
:103B180070B506460D4601F083FC0446304601F0B8
:103B280087FC2A1E0146204618BF0122BDE87040C6
:103B380003F02CBE0023122270B586B0CDE9022313
:103B480004930368032B01D804230593061D841DE1
:103B5800304601F065FC0546304601F069FC034635
:103B680001A92846019303F003FC204601F058FC04
:103B7800034620461C4601F05BFC01A9034620468B
:103B8800019303F0F5FB06B070BD00BF634A0368FC
:103B9800934210B58CB028D0614A934258D0614AFC
:103BA800934200F09480604A934201D00CB010BD5B
:103BB8005E4C5F48D4F8E03043F00203C4F8E030CC
:103BC800D4F8E03003F002030A930A9BFFF7B2FF30
:103BD800D4F8F43043F08003C4F8F430D4F8F43067
:103BE80003F080030B930B9BE0E7504C5148D4F84B
:103BF800E03043F00203C4F8E030D4F8E03003F0DA
:103C080002030193019BFFF795FFD4F8E8300022E7
:103C18001F2043F400131146C4F8E830D4F8E83004
:103C280003F400130293029BD4F8D83043F0010345
:103C3800C4F8D830D4F8D83003F001030393039BB9
:103C480002F01AFB1F200CB0BDE8104002F052BB76
:103C5800364C3948D4F8E03043F08003C4F8E030FB
:103C6800D4F8E03003F080030493049BD4F8E030E8
:103C780043F00203C4F8E030D4F8E03003F0020364
:103C88000593059BFFF756FFD4F8E8300022212062
:103C980043F480031146C4F8E830D4F8E83003F45C
:103CA80080030693069BD4F8D83043F00103C4F888
:103CB800D830D4F8D83003F001030793079B02F0FB
:103CC800DBFA21200CB0BDE8104002F013BB1B4802
:103CD800FFF730FF154B00224820D3F8E840114683
:103CE80044F40004C3F8E840D3F8E84004F40004BE
:103CF8000894089CD3F8D84044F00104C3F8D8408D
:103D0800D3F8D83003F001030993099B02F0B4FA01
:103D180048200CB0BDE8104002F0ECBA0054004056
:103D280000580040005C0040001C00580044025845
:103D3800B80E0024300C0024080D0024E00D0024E7
:103D48002DE9F0431A4B87B000254FF010099E4625
:103D5800EC46184BFF22E04667461A700EF118062B
:103D68000EF13004CDE90055CDE90255ADF80090CB
:103D7800BCE80F00CDE90455AEE80F009CE803004D
:103D88000095ADF800908EE80300B8E80F000FC664
:103D98009CE803000095ADF8009086E803000FCF7B
:103DA8000FC49CE8030084E8030007B0BDE8F08373
:103DB800480000242C0C002410B5EFF3108472B6D0
:103DC800084B1A78120602D504B962B610BD1B78E2
:103DD800D82205485BB202FB0300143002F076FFDC
:103DE800F2E700BF2C0C0024300C0024014804F03A
:103DF80065BB00BFBC0C0024014804F05FBB00BFDA
:103E0800940D0024014804F059BB00BF6C0E002437
:103E18002DE9F0430F68D8243F4D85B007FB04F423
:103E2800032F05EB0403036040DCCB680E46012B2F
:103E38003CD84DD04FF0D808B646DFF8FC9008FBC8
:103E48000758BEE80F00C446ACE80F00DEF80030A3
:103E58000DF1100ECCF80030D8F808C099E80F0022
:103E68000EE90F000EEB8703BCF1010F53F8103C6D
:103E7800C8F88C3031D0BCF1020F42D0BCF1000F31
:103E880035D0317C8C34D823002201202C4403FB0C
:103E980007534900C3E92602C3F894102046C3E932
:103EA8002822C3E92A2204F0FBF818B1012005B042
:103EB800BDE8F0830146204604F00CFB0028F5D14C
:103EC8000146204604F030FB003818BF0120EEE719
:103ED8000B7C103B672BADD9E8E701F01BF90F4BC2
:103EE80098420CBF0E4B0F4BC8F89030C9E701F051
:103EF80011F90A4B98420CBF0B4B0C4BC8F8903089
:103F0800BFE701F007F9054B98420CBF084B094B76
:103F1800C8F89030B5E700BF300C0024000E270722
:103F28002D0FB0303211D0205F4390608A62E030AC
:103F3800200BA0101A098010682901082DE9F0410A
:103F4800D0F8008082B00D4617461E4608F18C0452
:103F5800204604F0BBFA2028FAD1D8F80C3073B9FF
:103F68006D002046089C33463A46A9B2009404F0F6
:103F7800EDF8003818BF012002B0BDE8F081089BB9
:103F880032463946204604F0B5F9F2E7044B1022D0
:103F98001A7483F8E82083F8C02183F898227047C0
:103FA800300C002430B5002395B04FF48071062200
:103FB80004460B9306921393CDE90C13CDE90E3307
:103FC800CDE9113301F0A8F807282BD004F110052A
:103FD80041F2883206A9284605F0B8F828B101232D
:103FE800184684F85C3015B030BD0222022306A9B9
:103FF8002846CDE9002310220123CDE9022300221F
:104008004FF48003CDE9042305224FF08073069214
:104018006A460F9341F2883305F004FA0028DED18E
:1040280015B030BD0323012084F85C3015B030BDD5
:1040380070B50023A4B04FF080724FF48075044629
:10404800ADF806300D93CDE910320122CDE90E53BB
:10405800CDE91223CDE91433002943D0F02300F130
:10406800100508AEADF80630C02341F2883231465B
:104078002846089305F06AF828B10123184684F801
:104088005C3024B070BD41F288320DF1060128463B
:1040980005F0C6F803460028EFD105224FF48071D9
:1040A8001E93284616924FF080721B9321931F92FD
:1040B80002AA9FED1F7BCDE91C13CDE922338DEDBC
:1040C800027B9FED1D7B41F2883316A98DED047BA1
:1040D8009FED1B7B8DED067B05F0A4F90028CCD164
:1040E80024B070BD00F1100508AE612341F288329A
:1040F80031462846089305F029F80028BDD141F239
:1041080088320DF10601284605F008F90028B4D1D7
:10411800BDF80630204623F0780343F04003ADF89D
:104128000630FFF73FFF00289ED0A6E7AFF30080D8
:104138000000000001000000100000000100000065
:1041480000000000000040002DE9F04F00234FF46C
:10415800807501264FF0807804462DED028BABB0B8
:104168008DF8073013932193299314950E96CDF863
:104178005C80CDE91533CDE91863CDE91A33CDE973
:104188002253CDE92433CDE9273306231C9300F0CD
:10419800C3FF072808D004F1100741F288321CA990
:1041A800384604F0D3FF40B10123184684F85C3048
:1041B8002BB0BDEC028BBDE8F08F4FF0020A4FF038
:1041C800020B4FF0050941F2883308AA1CA93846AA
:1041D800CDF89480CDF870909FED2D8BCDE908AB8C
:1041E8004FF0000A4FF4800B8DED0A8BCDE90CAB34
:1041F80005F018F90028D7D141F2883238460EA9BF
:1042080004F0A4FF0028CFD1402341F288320DF1F9
:10421800070138468DF8073005F002F80028C3D1A9
:1042280041F288330EA902AA3846CDF83890CDF865
:104238005C809FED197B8DED048BCDE906AB8DED90
:10424800027B05F0EFF803460028ADD1CDF8709059
:104258004FF00109CDF894804FF00008219308AA87
:1042680029931CA938462295CDE92333CDE9273374
:1042780041F288338DED0A8BCDE90CABCDE9088985
:1042880005F0D0F8002893D0304684F85C608FE7BA
:104298001000000001000000400000004000000085
:1042A8002DE9F043624CA3B00D46046000F034FFE2
:1042B800072800F0A980286823466968AA6807C308
:1042C8001E46AB8926F8043B3046257B677B04F005
:1042D8001FFFE0B9574B012D4FF00108E061236142
:1042E80014BF4FF480134FF40003C4E9058893FA10
:1042F800A3F3B3FA83F34FF48079013BC4F8249015
:10430800C4E90B003046236204F096FE38B101225E
:10431800134684F85C20184623B0BDE8F083662372
:104328000B90139041F2883206A90693CDE90C90C0
:10433800CDE90E00CDE91100304604F007FF002852
:10434800E5D1992341F2883206A93046069304F054
:10435800FDFE0028DBD105231C9019906A461493B2
:104368004FF08073219014A91D9341F288339FED7B
:104378002A7BCDE91A90CDE91F008DED007B9FEDDA
:10438800287B30468DED027B9FED277B8DED047BEE
:1043980005F048F80028BAD129462046FFF748FE1C
:1043A8000028B4D12046FFF7CFFE03460028AED13F
:1043B800002FB0D1189330460027002606AA14A96A
:1043C800CDF86890CDE91F33EB2314934FF4406385
:1043D8001B934FF4005317934FF440431C93A023AF
:1043E8001693062319934FF0805321934FF040738F
:1043F800CDE906671D9305F08DF8034600288AD09D
:10440800434684F85C8086E701230322184684F833
:104418005C2023B0BDE8F08300000000010000002C
:104428001000000001000000000000000000400033
:10443800900F0024005000522DE9F04F8FB0414BEF
:104448000024026800AF9A427C63C7E90944C7E9BF
:104458000B4403D03C37BD46BDE8F08F3A4B40F6DD
:1044680009213A48EB46D3F8D42007F11C0607F196
:10447800220A4FF0020942F480424FF00308C3F8C1
:10448800D420D3F8D42002F48042BA60BA68D3F8B2
:10449800E02042F04002C3F8E020D3F8E02002F028
:1044A8004002FA60FA68D3F8E02042F02002C3F82C
:1044B800E020D3F8E02002F020023A613A69D3F80C
:1044C800E02042F01002C3F8E020D3F8E02002F028
:1044D80010027A617A69D3F8E02042F00202C3F848
:1044E800E020D3F8E030F86103F002033984BB61BF
:1044F800174B7B60BB697B6853F8040F7B6000F047
:104508008FFF7B680546186800F092FF16F8013B9C
:10451800786207F124012846C7F830807B63C7E931
:104528000A9402F025FF5645E5D100225C20114689
:1045380001F0A2FE5C2001F0DDFE3C37DD46BD4601
:10454800BDE8F08F00500052004402580A0A0909D9
:10455800EC0F0024114B02689A4200D07047104AB1
:1045680070B5D2F8D4300F4C23F4804304F1180608
:10457800C2F8D43054F8040F00F052FF0546206802
:1045880000F056FF0146284603F032F8B442F1D154
:104598005C20BDE8704001F0BBBE00BF0050005277
:1045A80000440258EC0F0024014805F03FB800BF52
:1045B800A00F0024084B1A1D981D03F1080110B420
:1045C8009C1C9A6603F10A02C3E91834C3E91B016B
:1045D8005DF8044B5A677047900F002438B503689C
:1045E80071B9026A00F1280500F5AC74012A0CBF04
:1045F800002140218BBB1D4B5722C0F858310DE0DC
:10460800426A00F1C00500F5E874012A0CBF0021D8
:104618004021EBB1164B5A22C0F8D0310023204676
:10462800C4E901214FF480524FF4806163626261F2
:104638004FF48042C4E903314FF48073C4E9062380
:104648004FF40033236201F0C9FF58B1FFBEFEE703
:10465800084B5822C0F8D031E0E7074B5922C0F880
:104668005831DBE7C5E92044A56338BD1000024096
:104678007000024028000240580002402DE9F04333
:10468800821D05468BB0031D05F10A010830CDE9EE
:10469800052305F10C02AB69CDE907010992002B4E
:1046A8003DD0EB69B3FA83F84FEA58180123022288
:1046B80005AE0AAF4FF006090393CDE9012356F87A
:1046C800044B2B792278934216D02B68F3B1012B37
:1046D80002D1F2B10A230493204600F0A9FE034652
:1046E8002046009300F09CFE694602F041FEBE425F
:1046F800E5D10BB0BDE8F083697963789942E4D1DC
:10470800B8F1000FF3D02B68002BE0D1CDF8109052
:10471800E2E76378022B14BF0A230823DBE74FF094
:104728000108C3E7534A0368934230B505468BB086
:1047380055D02032934252D04F4A934204D020326F
:10474800934201D00BB030BD4C4C4D48D4F8E0300A
:1047580043F00103C4F8E030D4F8E03003F001037B
:104768000593059BD4F8E03043F00803C4F8E03023
:10477800D4F8E03003F008030693069BD4F8E03041
:1047880043F04003C4F8E030D4F8E03003F04003CD
:104798000793079BD4F8F03043F40003C4F8F030D3
:1047A800D4F8F03003F400030893089BFFF766FF82
:1047B800D4F8D830296843F001032F4A3048C4F8A8
:1047C800D830891AD4F8D83018BF012103F0010372
:1047D8000993099B0BB0BDE83040FFF7FFBE274C9B
:1047E8002848D4F8E03043F00103C4F8E030D4F8A6
:1047F800E03003F001030093009BD4F8E03043F06D
:104808001003C4F8E030D4F8E03003F0100301934B
:10481800019BD4F8E03043F04003C4F8E030D4F80A
:10482800E03003F040030293029BD4F8F03043F4E5
:104838008003C4F8F030D4F8F03003F48003039315
:10484800039BFFF71BFFD4F8D830296843F0010316
:10485800084A0C48C4F8D830891AD4F8D83018BF98
:10486800012103F001030493049B0BB0BDE8304021
:10487800FFF7B4BE04580140045C014000440258EC
:104888006412002408100024014802F01FBA00BF77
:1048980060110024014802F019BA00BFD8110024A1
:1048A800014802F013BA00BFBC130024014802F00B
:1048B8000DBA00BF341400241A4A0368934210B496
:1048C8000BD02032934208D0174A934216D0203298
:1048D800934213D05DF8044B7047144B0022D3F871
:1048E8005442C3F85822002CF4D0D3F84802D3E934
:1048F800931223465DF8044B520818470B4B0022CD
:10490800D3F8B044C3F8B424002CE3D0D3F8AC24D3
:10491800D3F8A814D3F8A404520823465DF8044B2E
:10492800184700BF04580140045C014008100024E7
:10493800184A0368934210B40BD02032934208D02F
:10494800154A934217D02032934214D05DF8044B95
:104958007047124BD3E994245208C3F85822002C0C
:10496800F4D0D3E99201234601EB820100EB8200E7
:104978005DF8044B1847094BD3F8AC24D3F8B0447E
:104988005208C3F8B424002CE0D0D3F8A814D3F804
:10499800A404E8E704580140045C0140081000241E
:1049A8002DE9F04F0C684FF41776754F87B004FB6C
:1049B80006F6012C07EB060AC0F800A000F3A08059
:1049C8000D468E464FF00008D44669A3D3E900236C
:1049D80069A1D1E90001CDE9022306ABCAF85082EA
:1049E80003EB8403CDE9040153F810BC53F8083CE9
:1049F800CAE992880193BEE80F00ACE80F00BEE850
:104A08000F00ACE80F00019B9EE80300CAF828B02D
:104A1800CAF8C0308CE803002B69042B0CD8DFE8F7
:104A280003F0737D879103004FF41773554A03FB16
:104A380004739A64C3F8E020AA692B6A002A43D059
:104A4800002B4FF4177308BF022203FB047318BF2F
:104A58000322DA6201221A63EA696B6A002A40D1EA
:104A6800191E4FF4177318BF012103FB0473C3E920
:104A780031126B69022B05D8434A12F80380434A66
:104A880052F823904FF4177306F12800424649461E
:104A980003FB04740023384463646363E365C4F868
:104AA800DC30C4F8CC30C4F8F430C4E90F33C4E9BE
:104AB8001533C4E93533C4E93B33022306F058FE05
:104AC800002849D0FFBEFEE7191E4FF4177318BF20
:104AD800012103FB0473C3E90B12EA696B6A002A1C
:104AE800BED0002B4FF4177308BF022203FB0473D8
:104AF80018BF0322C3F8C4200122C3F8C820B8E7AE
:104B0800012007B0BDE8F08F4FF417734FF4FA5245
:104B180003FB04739A64C3F8E0208DE74FF417731E
:104B28004FF47A5203FB04739A64C3F8E02083E7D6
:104B38004FF417734FF4FA4203FB04739A64C3F8F3
:104B4800E02079E74FF417734BF6803203FB0473C8
:104B58009A64C3F8E0206FE706F1C00002234246DA
:104B68004946384406F004FE0028CAD0FFBEFEE7D6
:104B780004580140045C014024580140245C014071
:104B88000810002400770100DC290108E029010849
:104B98000068704770B5046882B015460E46C4F8C0
:104BA8005032C4E99212069AC4F85422A269012A22
:104BB80026D0626A012A9AB211D0294604F1C000AF
:104BC800019206F091FE236A019A012B10D0294622
:104BD80004F1280006F088FE002002B070BD04F140
:104BE800C000019206F012FF236A019A012BEED150
:104BF800314604F1280006F009FF002002B070BD1C
:104C0800226A012A9AB211D0294604F12800019299
:104C180006F06AFE636A019A012B10D0294604F156
:104C2800C00006F061FE002002B070BD04F128004B
:104C3800019206F0EBFE636A019A012BEED1314630
:104C480004F1C00006F0E2FE002002B070BD00BF13
:104C580003681B69042B05D8044A02EB830393ED10
:104C6800000A70479FED020A704700BFEC2901084F
:104C780000803B470368D3F858027047704700BF6D
:104C880008B500F0DDFCBDE8084001F0BDBB00BF81
:104C9800064808B503680BB102F07CFD04480368B8
:104CA8001BB1BDE8084003F06BBC08BDD81C00244C
:104CB800D0180024064808B503680BB102F06AFD55
:104CC800044803681BB1BDE8084003F059BC08BD9F
:104CD800D81C0024D0180024064808B503680BB176
:104CE80002F058FD044803681BB1BDE8084003F012
:104CF80047BC08BDD81C0024D0180024364BDA6AFB
:104D0800520062D59A6A9A6A9A6A9B6A180600D50E
:104D180000BE314B9B6A990600D500BE2E4B9B6A9C
:104D2800DA0600D500BE2C4B9B6A1B0700D500BED7
:104D3800294B9B6A980700D500BE274B9B6AD90769
:104D480000D500BE244B9B6A1A0400D500BE224B36
:104D58009B6A9B0400D500BE1F4B9B6AD80400D5F4
:104D680000BE1D4B9B6A190500D500BE1A4B9B6AF5
:104D78005A0500D500BE184B9B6A9B0500D500BE9E
:104D8800154B9B6AD80500D500BE134B9B6A990149
:104D980000D500BE104B9B6ADA0100D500BE0E4B51
:104DA8009B6A1B0300D500BE0B4B9B6A580300D5BA
:104DB80000BE094B9B6A990300D500BE064B9B6A4F
:104DC800DA0306D400BE00BEFEE7DB6A9B07FAD50D
:104DD800F8E700BEF6E700BF00ED00E000F03CBCDD
:104DE80000F040BC0A4B9B6803F17843B3F5003FE1
:104DF8000BD3084B986848B19868012806D0986882
:104E0800022803D09B68032070470120704700BF29
:104E180000ED00E0000080382DE9F041CEB00446F6
:104E28004C2200210AA80DF06BFC2022002102A8C8
:104E38000DF066FCBC2200211EA80DF061FC0220CA
:104E480004F012F82368012B4FF0000354D0534AA2
:104E580002250193C820D16A514B21F00101D1628A
:104E6800D26A02F0010201929A6942F440429A61C0
:104E78009B6903F440430193019B494A93699B044E
:104E8800FCD548490224002201268B6A04274FF0EA
:104E9800080823F0030323438B62052316900AA80E
:104EA80018934FF480331096179419941597CDF8EA
:104EB8006880CDE91B222122CDE91344CDE90A23DC
:104EC80004F0BCFC00B1FEE73F220323294602A8F8
:104ED800CDE9022300220823CDE904234022402300
:104EE800CDE9062340234FF48062CDE9082304F07E
:104EF800D3FF0346B8B1FEE7294A04250093F02002
:104F08009169264B41F440419161926902F4404213
:104F18000092DA6A42F00102DA62DB6A03F0010306
:104F28000093009BA9E720224FF4805125934FF46A
:104F380040152B9280222D931EA8309326913591EF
:104F48004FF48071249234920C223394439140F2AE
:104F5800271120921022CDF884802A971F96CDE938
:104F68002E34CDE93B334FF48033CDE922463193DB
:104F7800002446930623CDE93E4527934FF48063EA
:104F8800094C2C931E94CDE9281205F0E1F900B1E3
:104F9800FEE703F08FFF4EB0BDE8F0810004005833
:104FA80000480258004402580F130F0370B584B02C
:104FB800012401F0D7F94FF480764FF04052194B95
:104FC80068460025ADF800400396CDE9012301F0BD
:104FD800E7F919224FF0404368468DF808200193FD
:104FE8008DF80F40ADF80D608DF801408DF80A502E
:104FF80001F0D6F902230B2268468DF80F508DF880
:1050080001304FF062538DF808200193ADF80D4040
:105018008DF80A4001F0C4F9042001F0B1F904B098
:1050280070BD00BF0E00010330B50D46044685B0C3
:10503800D1E9000184E8030000F0D2FAAB79A3B308
:105048000AF08EF8FEF77CFE08F0F4FC09F080FD0B
:105058002B798BBB6B799BB1BFF34F8FBFF36F8FEE
:105068002A4B0022C3F85022BFF34F8FBFF36F8F34
:105078005A6942F400325A61BFF34F8FBFF36F8F02
:105088004FF0FF3200230024002569462048029291
:105098008DF80C30CDE9004509F0ECF81C4809F012
:1050A80051F908F0F7F805B030BD2046FFF7B4FE17
:1050B8002046FFF77BFFC3E7144C0023C4F8843075
:1050C800BFF34F8FD4F8801043F6E07EC1F34E3C17
:1050D800C1F3C9014FEA4C1C0CEA0E000B4640EA2A
:1050E8008372013BC4F860225A1CF8D1ACF1200C41
:1050F8001CF1200FF0D1BFF34F8F636943F4803365
:105108006361BFF34F8FBFF36F8FA3E700ED00E03C
:10511800C014002404F0F0BF1C4B9B6803F17842D4
:10512800B2F5003F25D3B3F5803F20D303F16042A9
:10513800B2F5003F1FD303F15C42B2F5002F1CD338
:1051480003F17042B2F5902F19D303F14842B2F53A
:10515800803F16D303F18042B2F1806F13D303F17D
:10516800E043B3F5000F2CBF08200720704701204B
:1051780070470020704702207047032070470420C2
:105188007047052070470620704700BF00ED00E01B
:1051980003480023034A044903600CF0F7BD00BF2D
:1051A800C014002400000024854C000810B4204CD2
:1051B8000022204B83B0D4F888101F4841F47001B6
:1051C800C4F8881019681D4C41F0010119601A6172
:1051D800196808401A4918609A61DA611A629A6275
:1051E800DA621A635A639A63DA631A645A6418684B
:1051F80020F4802018601A66D3F8DC2042F0604260
:10520800C3F8DC20D3F8DC300193019B23681940F4
:10521800B1F1005F03D20B4B0122C3F80821044B04
:105228004FF000629A6003B05DF8044B704700BF0E
:1052380000ED00E0004402587FEDF6EA0010005C43
:105248000000FFFF0080005100F57171D0F80404E0
:1052580007F008BCC1EBC10300EB8303D0F80404DA
:10526800D3F8082207F02CBCC1EBC10300EB830381
:10527800D0F804049A6C07F061BC00BFD0F80404AD
:1052880007F000BDC16810B5044619B1022900D065
:10529800FEE70121D4F8040407F0DEFCD4F8040486
:1052A800BDE8104007F0B0BC10B50446D0F80404BF
:1052B80007F0D6FC2268D2F8003E43F00103C2F89A
:1052C800003E236A23B1034A136943F006031361BE
:1052D80010BD00BF00ED00E0D0F8040407F0CABC20
:1052E800D0F8040407F0DEBCD0F8040407F0D8BCFA
:1052F800D0F8040407F0D8BCD0F8040407F0D6BCF2
:105308009446D0F898021A4608B5634603F09CFC08
:10531800032802D8024B185C08BD022008BD00BF54
:10532800102A0108D0F8980208B503F01BFD0328DD
:1053380002D8024B185C08BD022008BD102A0108DB
:10534800D0F8980208B503F051FD032802D8024BA3
:10535800185C08BD022008BD102A01080A06D0F80A
:10536800983206D4C1EBC10103EB810191F8FE012B
:10537800704701F07F01C1EBC10103EB810191F896
:105388003E007047D0F8980208B503F047FC0328A0
:1053980002D8024B185C08BD022008BD102A01087B
:1053A800D0F8980208B503F0B5FC032802D8024BE0
:1053B800185C08BD022008BD102A0108D0F8980220
:1053C80008B503F07FFC032802D8024B185C08BD1F
:1053D800022008BD102A0108D0F8C00207F014BF47
:1053E800D0F8C00207F028BFD0F8C00207F030BFDD
:1053F800704700BFD0F8C00207F016BFD0F8C0024F
:1054080007F016BFD0F8D00308B502F083FD0328D3
:1054180002D8024B185C08BD022008BD142A0108F6
:10542800024B027853F82200704700BF382A01085F
:10543800024B427833F81200704700BF182A01085F
:105448008CB00A2814D8DFE800F01523313F4D5BF3
:105458006977859306004D4BD3F8E02042F48062CB
:10546800C3F8E020D3F8E03003F480630B930B9B80
:105478000CB07047454BD3F8E02042F00102C3F866
:10548800E020D3F8E03003F001030193019BEFE73C
:105498003E4BD3F8E02042F00202C3F8E020D3F8F4
:1054A800E03003F002030293029BE1E7374BD3F8A5
:1054B800E02042F00402C3F8E020D3F8E03003F023
:1054C80004030393039BD3E7304BD3F8E02042F067
:1054D8000802C3F8E020D3F8E03003F0080304938F
:1054E800049BC5E7294BD3F8E02042F01002C3F82B
:1054F800E020D3F8E03003F010030593059BB7E7ED
:10550800224BD3F8E02042F02002C3F8E020D3F881
:10551800E03003F020030693069BA9E71B4BD3F862
:10552800E02042F04002C3F8E020D3F8E03003F076
:1055380040030793079B9BE7144BD3F8E02042F006
:105548008002C3F8E020D3F8E03003F0800308932A
:10555800089B8DE70D4BD3F8E02042F48072C3F826
:10556800E020D3F8E03003F480730993099B7FE7C8
:10557800064BD3F8E02042F40072C3F8E020D3F8D9
:10558800E03003F400730A930A9B71E70044025861
:10559800704700BF0F4B1B780BB90120704710B53F
:1055A80004464FF47A700C4AB0FBF3F31068B0FB72
:1055B800F3F000F0C1FE0F2C00D808B1012010BD97
:1055C800002221464FF0FF3000F056FE034B00202A
:1055D8001C6010BD98000024900000249C0000244A
:1055E80038B50320124D00F035FE124C04F0B4FB20
:1055F800114A12499369C3F30323CB5C03F01F03D9
:1056080020FA03F30E202B60926902F00F028A5CE5
:1056180002F01F02D3402360FFF7BCFF10B1012442
:10562800204638BD0446FFF7B3FF204638BD00BF0B
:10563800900000249400002400440258002A010825
:10564800034A044B11681B780B441360704700BF72
:105658009C1F002498000024014B1868704700BF65
:105668009C1F002438B50446FFF7F6FF0546631C67
:1056780002D0044B1B781C44FFF7EEFF431BA342E8
:10568800FAD338BD98000024014B1868000C704705
:105698000010005C704700BF806B08B5FFF7FAFF89
:1056A80008BD00BF836B5A6D12F0500F5A6D10B5CC
:1056B8001DD1196842F400725A650A6812F0080F81
:1056C800CA681BD012F4406F0DD1CA6894040AD47A
:1056D8005A6D22F480725A655A6DD10403D45A6DFA
:1056E80042F001025A651846FDF786FF10BDD20642
:1056F8000AD4DB6CBDE81040DB6C18479007E7D094
:105708001846FDF779FFF1E71846FEF719F810BDBE
:10571800806B08B5436D43F040034365836D43F0E8
:1057280004038365FEF70CF808BD00BFF0B500223E
:1057380083B0019290F85020012A00F01C810346A2
:1057480001201A6883F850009468640700F18A8081
:105758000C68C4F31305002D40F08F80C4F38464F3
:10576800A0404D684FF01F0ED6694FEA951C304394
:105778000CF00C0CD06105F01F0002F130058440DC
:105788000EFA00FE5CF8050020EA0E0004434CF80F
:105798000540906840076ED4956815F0080547D114
:1057A8000C68072002F11406B94F4FEAD45CC4F321
:1057B80004540CF0040C00FA04FE886800FA04F49F
:1057C8005CF8060020EA0E0020434CF80600386812
:1057D80000F07040B0F1805F00F0C580D068D668F6
:1057E800C70600F1E880C6F382064869760000FA29
:1057F80006F60F69042F00F0C18002F16004086802
:1058080054F827C000F0F8400CF0004C40EA0C00B7
:10581800304344F82700487E0E69012854F82600D2
:1058280008BF4FF0004520F00040054344F82650DB
:105838009068C40714D4CE68086806F01807954C19
:10584800D2F8C050FC40C0F31307044025EA07050E
:105858002C43C2F8C040904CA64246D0002816DB24
:10586800002003E05A6D42F020025A65002283F8B6
:10587800502003B0F0BD9068DAE794FAA4F5B5FAC1
:1058880085F5C4F3846405F01F05A84069E78349DA
:105898008A4200F0B68001F580718A4200F0B1803A
:1058A8007F4D804CA968A46801F0E076E44304F0D9
:1058B8000104002C00F0B4807B4CA04200F0FC8076
:1058C8007A4CA04200F01A81794CA042C8D1490212
:1058D800C6D474498A42C3D1AA68002022F0E07273
:1058E800324342F48002AA60C0E7002F6AD090FADF
:1058F800A0F4B4FA84F4013404F01F04092C00F273
:10590800A48090FAA0F4B4FA84F490FAA0F5B5FA59
:1059180085F5013401260135A40605F01F0504F0BC
:10592800F84406FA05F52C4390FAA0F0B0FA80F096
:10593800304400F01F0000EB400000052043C60D76
:1059480002F11405C0F30450072406F0040604FA13
:1059580000F7745924EA07048F6807FA00F0204317
:10596800705108687AE7D6684869C6F382067600F7
:1059780000FA06F63DE7022003B0F0BD106E0C6891
:1059880000F0F840A506B0EB846F30D0506E00F000
:10599800F840854226D0906E00F0F84085422BD022
:1059A800D06E00F0F84085427FF442AFD06E20F010
:1059B8000040D0663CE77608486906F0080600FA19
:1059C80006F616E7800E441C04F01F06092E2DD893
:1059D800A406012004F0F844B040044306EB460056
:1059E8000005ABE7506E20F000405066D3E7106E1C
:1059F80020F000401066C9E7906E20F000409066E5
:105A0800CEE7264C2B4D04F58074A96854F8F86C41
:105A1800A468344301F0E076E44304F0010448E765
:105A28005A6D012042F020025A651FE706EB460036
:105A3800A50601241E3805F0F84504FA06F6000507
:105A4800354340F00070284379E790FAA0F5B5FA9D
:105A580085F590FAA0F4B4FA84F4013501260134EE
:105A6800AD0604F01F0405F0F84506FA04F42543D2
:105A780090FAA0F4B4FA84F4344404F01F0404EB5C
:105A88004404A4F11E00000540F00070DBE700BFED
:105A98000010005CFFFF0F000000FF4700200240DD
:105AA8000063025800600258000084CB000052C70F
:105AB8000000B8CF0023024008023FF5D1AE1749D5
:105AC8008A427FF4CDAE164AA9681268154821F0BB
